:020000040800F2
:10000000000A0020095300084D5100084F51000814
:1000100051510008535100085551000800000000DC
:100020000000000000000000000000005751000820
:1000300059510008000000005B5100085D510008A4
:1000400033530008375300083B5300083F53000860
:1000500043530008475300084B5300084F53000810
:1000600053530008575300085B5300085F530008C0
:100070006151000863530008675300086B53000880
:100080006F53000873530008775300087B53000830
:100090007F53000883530008875300088B530008E0
:1000A0008F53000893530008975300089B53000890
:1000B0009F530008A3530008A7530008AB53000840
:1000C000AF530008B3530008B7530008BB530008F0
:1000D000BF530008C3530008C75300086751000806
:1000E000CB530008CF530008D3530008D753000860
:1000F000DB5300086D510008DF530008E35300088C
:10010000E7530008EB530008EF530008F3530008CF
:10011000F7530008FB530008FF530008035400087E
:100120009F510008075400080B5400080F540008A2
:1001300013540008000000000000000017540008DD
:100140001B5400081F5400082354000827540008BB
:100150002B5400082F54000833540008375400086B
:100160003B5400083F54000843540008475400081B
:100170004B5400084F54000853540008000000007E
:1001800000000000575400080000000000000000BC
:100190005B54000800000000000000005F540008ED
:1001A0000000000000000000000000006354000890
:1001B000675400086B5400086F540008735400081B
:1001C000775400082DE9F04F0FF2A41CA1B0DCE930
:1001D0000089CDE900892A9DDFF8DC9B0491002489
:1001E0008DF843500D944FF0FF38824616461F4657
:1001F0000FE0B3462C461BF8011B0498D04700289B
:10020000049000F0A2800D98401C641E0D90F2D165
:1002100076193078252808D100210022079108920C
:1002200009910A920B910C920DE06A4641463046C4
:1002300000F0DAFF050001D10D98A1E0D9D5012524
:10024000E6E741F0010116F8010F2028F9D0232834
:100250000CD02B2804D02D2805D0302809D076E0EA
:1002600041F00201EFE741F00401ECE741F0080141
:10027000E9E741F01001E6E70F9209E00F984845E1
:1002800005DA00EB800402EB4402303A0F92761C50
:100290003278A2F130000A28F0D330782E2818BF27
:1002A000CDF8388022D116F8010F2A2807D13868F6
:1002B0003860761C50F8042B38600E9216E02D281A
:1002C0000CBF761C002000220E920AE040B90E9A64
:1002D0004A4505DA02EB820403EB4403303B0E93FC
:1002E000761C3378A3F130020A2AEFD3ADF8401020
:1002F00021A0317800F082FF08B116F8010B8DF8CB
:1003000042009DF84200682804D1307868280AD15C
:10031000622105E06C2804BF30786C2803D171217C
:100320008DF84210761C12A806903A4616F8013B4A
:1003300002A9504600F064F838B912AA02A9504642
:1003400000F0C8F900287FF564AF404618E02A287D
:1003500092D13A683A6052F8040B3A6000280F9044
:1003600003D540420F9041F00401761C95E7000050
:100370000000000000000000686A6C747A4C000005
:1003800021B0BDE8F08F622820D0682811D06A28FB
:1003900003D06C2827D0712825D10868C01D20F013
:1003A00007000860D0E900230830086019461046AD
:1003B0007047002A0A680A60106803D0121D0A609C
:1003C00000B217E0121D0A6080B217E0002A0A6826
:1003D0000A60106803D0121D0A6040B20AE0121DC4
:1003E0000A60C0B20AE0002A0A680A60106803D0F6
:1003F000121D0A60C1177047121D0A600021704764
:100400007CB50D4611461C462E69B4F1250200F05C
:100410004F811C3A00F08480121F022A40F2808033
:100420000E3A00F00981521F59D0093A78D0921E35
:1004300016D0521E35D0521E022A71D9121F30D04A
:10044000521F00F09880521E49D0521E00F0E280E8
:10045000D21E00F0FF80921E41D0D21E3FD02DE16F
:1004600095F83A406C2C09D06869421C6A610A68A8
:100470000A6052F8043B0A60335429E10A680A60B2
:1004800052F8043B0A600093002201924FF0FF33C0
:100490002B636A46294600F098F9002840F118813C
:1004A00003E195F83A000122FFF76DFFC5E900016D
:1004B000002904D56869411C69612D220DE0288F4F
:1004C000810704D56869411C69612B2205E0C007DA
:1004D00021D56869411C6961202232541BE095F8DE
:1004E0003A000022FFF74FFFC5E9000195F83800F8
:1004F000010710D5D5E90023002B08BF002A0AD038
:1005000044F02000782806D1686930213154401C1D
:10051000421C6A613454214668693044E86087E0CF
:100520000868C01D20F007000860D0E900230830EB
:100530000860C5E90023D5E90001C80F04D0686947
:10054000411C69612D220DE0288F810704D568695F
:10055000411C69612B2205E0C00704D56869411C74
:1005600069612022325468693044E8602146284697
:1005700000F036FAACE005F13A02507820B14FF0C5
:10058000FF340FF6043074E01078622808D0682831
:1005900024D06A2812D06C282ED071280ED02BE0DF
:1005A0000A680A6052F8040B0A6020B94FF0FF3461
:1005B0000FF6EC205DE0E96A017089E00A680A60E4
:1005C00052F8040B0A6020B94FF0FF340FF6D02028
:1005D0004FE0EA6AD317C0E9002379E00A680A60AD
:1005E00052F8040B0A6020B94FF0FF340FF6B02028
:1005F0003FE0E96A01806BE00A680A6052F8040B88
:100600000A6020B94FF0FF340FF6942031E0E96A18
:1006100001605DE00A680A6052F8040B0A6000217C
:1006200020F0000221F0FF33C5E90023EE607821BD
:10063000284600F02DF94BE06C2285F83A200B6833
:100640000B6053F8042B0B6052BB4FF0FF340FF6D6
:1006500084200EE095F83A206C2AF0D008680860F3
:1006600050F8044B0860EC603CB94FF0FF340FF6D3
:10067000482000F0EBFD201A76BD2E6B002E04D52D
:10068000204600F003FE044608E0324600212046E2
:1006900000F026FE002814BF041B3446AC6117E0AE
:1006A000294600F092F8002812D54FF0FF3076BDB1
:1006B0006869411C69612522325409E06969481C56
:1006C000686125227254210002D0431C6B613454AE
:1006D000002076BD2DE9F0410E4605469046726B2E
:1006E0007069316AB46A121AB069521A716A121AC0
:1006F000F069521A121A96F83800141B41070DD4EB
:10070000002C0BDD2746B0682021A8470028B060E8
:1007100057D0F06A401C7F1EF062F4D173694246E4
:100720003146284600F098FC00284AD1376A002F4D
:100730000ADDB0683021A8470028B06041D0F06AD7
:10074000401C7F1EF062F4D1B369F268314628463E
:1007500000F082FCA8BB776A002F09DDB068302169
:10076000A847B06068B3F06A401C7F1EF062F5D104
:10077000F068B169F36942183146284600F06CFC14
:10078000F8B9B76A002F09DDB0683021A847B0601A
:10079000B8B1F06A401C7F1EF062F5D196F83800BF
:1007A00041070BD5002C09DDB0682021A847B060B7
:1007B00038B1F06A401C641EF062F5D10020BDE83B
:1007C000F0814FF0FF30BDE8F0812DE9F8470D468C
:1007D000A3B02F6B002F0646904648BF6FF000472E
:1007E0000FF60C1400F0A8FDD4E90023696B401843
:1007F000CDE90123812828BF4FF0FF3042D20024E9
:10080000002F33DDD8F8001001AA684600F0EEFC96
:100810008146B9F1000F38D4D8F8000010B9B9F109
:10082000010932D44F4521DB6869484481280AD345
:100830000021696303AA29463046FFF74BFF0400F5
:1008400014D40020686103ABD5F814A04A46694669
:1008500003EB0A0000F076FDCA44C5F814A058F86E
:10086000040B002818BFA7EB0907C9D14CB903AA8C
:1008700029463046FFF72EFF044614B90020686170
:100880006863204624B0BDE8F0874FF0FF34F8E7F6
:100890002DE9FC4307466F293E6908BF082405D0AF
:1008A00041F02000782814BF0A2410243C25D7E901
:1008B0000023642918BF69299046994605D1002B69
:1008C00003D5D8F1000869EB4909B9F1000F08BF59
:1008D000B8F1000F1FD1386BE8B9082C4CD197F84C
:1008E0003800010748D530203B2586F83B0043E01F
:1008F00000280ED597F8380000F01400102808D111
:100900007B6B7969386A5B1A1B1A9A1A002AC8BF6E
:100910003A62BDE8F3838DF800104046494622460E
:10092000E31700F063FD3032D0B26D1E3A28019516
:1009300004DB9DF80000A0F151018A187255404671
:1009400049462246E31700F051FD80465FEA01095F
:1009500008BFB8F1000F03D0F86871198842DCD3E2
:10096000082C09D197F83800010705D5705D3028AB
:1009700002D06D1E30207055C5F13C02BA6171196C
:10098000F960386B8242B3DA821A3A624FF6EF703E
:10099000398F01403987BDE8F3832DE9D0430646FE
:1009A0000F4614464FF00008DFF8109412E0E007FD
:1009B00007D542464B463046394600F09BFD064679
:1009C0000F464046494642464B4600F093FD6410B0
:1009D00080468946002CEAD130463946BDE8D083AE
:1009E0002DE9F84F05468A464AF020048EB0D5E935
:1009F0000089612C02AE09D0286B002848BF062070
:100A000003D408BF672C01D101202863D5E9000178
:100A10004A005215521C0DD10B030BD0AAF16101F3
:100A200003201A29A86102D20FF2CC6110E00FF264
:100A3000CC610DE04A005215521C0ED10B030CD1B3
:100A4000AAF1610103201A29A86116D30FF2B4613B
:100A5000E868032200F076FCC0E1CDE90C01DDE995
:100A60000C2323F00043B3F5801F0DD20027002B89
:100A700008BF002A019703D111E00FF28461E7E774
:100A800001AA00F009FE0AE0CD48CE4900EB135060
:100A9000DDE90C2301900B40CB4910461943C5E911
:100AA0000001612C0DD1E86830210170821CBAF17F
:100AB000610FEA600CBF7821582141706869801C81
:100AC0006861D5E90001CDE90C01DDE90C2333F0C3
:100AD000004104BF0028002300F04881612C40F051
:100AE000A080286B494600284CBF4FF0210B00F135
:100AF000010B404600220023DDE90C8900F004FED2
:100B000001990BF1010738BF89F00049091F002F37
:100B100001918DF808200DF1090040F33581A949B4
:100B200000910646404649460022002300F004FE9C
:100B300080F029814800400D00F11C0211D0002AEC
:100B40000FDD40F2FF739A4205DBA04909F0004037
:100B50000143002011E0009B194041EA0251404648
:100B60000BE028F0000039F0004108BF00280FBF5B
:100B700049461C22494600F0F7FD8046894600F0B0
:100B800091FEFF1F002F044609DD00F0A9FE02467A
:100B90000B464046494600F0B5FE80468946F01DAA
:100BA000072104E004F00F0200F8012D2411002CAD
:100BB00001DD491EF6D5491E5CBF002200F8012D5B
:100BC000F9D5DCE00020194602AA0A4400E05B1EC9
:100BD00012F80149491E8442F9D00F2804D10DF1C1
:100BE0000900425C521C4254002904D50198001DA2
:100BF00002AE5B1C0190581E0CD43118AAF13A04C5
:100C00000A783032D7B23A2FA8BFA218401E01F896
:100C10000129F5D5286B002840F1A780591E2963CA
:100C2000A3E001996A4A47F29750414391FBF2F2DF
:100C3000019229F00046D2F1070204DD4046314618
:100C4000FFF7ABFE0AE0524200206249FFF7A5FE23
:100C500002460B464046314600F0C6FE8046662CF2
:100C6000286B06BF019F0A3706273F18142FC8BFFD
:100C7000142730208DF8080089460DF1090000E0A6
:100C80003046002F34DD06464046494600F0D0FF8E
:100C900001460A4606F1080304200A26B2FBF6F6CE
:100CA00006EB860EA2EB4E02303203F8012C0A222C
:100CB000B6FBF2F202EB820EA6EB4E063036401E79
:100CC00003F8026DE9D1083F002F03F10806D7DDD4
:100CD000084600F0C1FF02460B464046494600F078
:100CE00011FE00223C4B00F005FC80468946CBE714
:100CF0000DF10901401A0DF1090604E00199491EA0
:100D0000401E0191761C31783029F7D0662C02D133
:100D10000199491C03E0652C0CBF012100212B6BBC
:100D2000CB189842B8BF431E002B1ED4834204DA6E
:100D3000F05C3528A8BF392000DA30201946721E31
:100D400002EB010800E05B1E18F80199491E81457D
:100D5000F9D0392802D1705C401C7054002904D5A8
:100D60000198401C16465B1C0190019800B200904F
:100D70001BB232465146284600F034F82EE0C61D1C
:100D8000002F3FF7CFAE30460DF10901401A034660
:100D90005845C8BF5B46002B0DF109063FF53AAF39
:100DA0008342BFF60FAF0DF10900C15C07297FF741
:100DB00009AF0F2007E70000CBCCCC0C000024408B
:100DC00002FCFFFFFFFF0F800000E03F0000F07F0C
:100DD000A08601000000F03F84D797410FB0BDE826
:100DE000F08F00002DE9F84783B006468A46174683
:100DF000984600F0FDF9B8F1000F406A356B90F8A5
:100E0000009002DC4FF00108BFA74AF02000BDF9B6
:100E10003040662808BF641C15D0672840F08480E5
:100E200014F1040FC0F28680AC4280F2838096F801
:100E30003800641C010702D4A845B8BF454620B25B
:100E40002D1A48BF00250FFA84FAF068B169BAF18B
:100E5000000F25DC4A1C30234354002D03DC96F898
:100E60003800010703D5F06800F80290521C15EB1A
:100E70000A0FB8BF6C4220B2441941424445B8BF82
:100E8000A046B26171620FFA88F5F561F068B36946
:100E90002A463946184400F055FA641BB462C4E08F
:100EA00022B29045084417DA4246394600F04AFA21
:100EB000B0694044B061AAEB0801002D716203DC07
:100EC00096F838100A0705D5F16801F80090F06926
:100ED000401CF061B562A8E0394600F033FAB06911
:100EE000002D5044A8EB040803DC96F838100A07DC
:100EF00003D5F16801F80090401CB0610FFA88F04A
:100F00008542F368B069B8BFA8460FFA88F207EBCC
:100F10000A01184400F016FAB1690FFA88F001448A
:100F2000B161281A706280E0BAF1610F14D14FF0FC
:100F3000700A16E0A84504DA96F838100A0758BF78
:100F400045466D1E48BF0025BAF1670F14BF4FF02C
:100F5000450A4FF0650A04E0BAF1410F08BF4FF0AF
:100F6000500AB169F368481CB061002D17F8012BD5
:100F70005A5403DC96F838100A071BD5F168431C55
:100F8000B36101F80090002D14DDA8F101080FFAFB
:100F900088F039468542F768B8BFA8460FFA88F24C
:100FA000F81800F0CFF9B0690FFA88F108446D1A0B
:100FB000B0617562F068B1690844002C80F800A047
:100FC00003D42B224270811C03E02D214170644226
:100FD000811C00206A460AE023460A2493FBF4F4AD
:100FE00004EB8405A3EB450302F8013B401C24B24B
:100FF000002CF1DC012806DC4AF02002652A04BF3F
:10100000302201F8012B48B9302001F8010B07E02C
:10101000401E1DF80030303301F8013B0028F7DC9A
:10102000F268B0691044091AF16196F8380000F0CE
:10103000140010280DD17269B169706A8A18F169BB
:101040008218B06A8A188218706B8242BCBF821AFA
:10105000326204B0BDE8F087F8B505460E46174683
:101060001C46002074B117F8011BB068A847B06097
:1010700030B1F06A401CF0620020641EF3D1F2BD72
:101080004FF0FF30F2BD00007072696E74665F73DE
:101090003A20256E20646973616C6C6F776564001B
:1010A0007072696E74663A2062616420256E2061F8
:1010B0007267756D656E74007072696E74665F73C9
:1010C0003A2062616420257320617267756D656ED8
:1010D000740000007072696E74665F733A2062611A
:1010E0006420256C7320617267756D656E740000F5
:1010F00000000000000000006E616E004E414E00D6
:10110000696E6600494E46003000F0B40246106831
:1011100095681318506803EB5004C0071DD54D4463
:101120001BE013F8017B05F8017B491EF9D1A0B142
:10113000B60813F8011B06F00306032E08BF13F8C8
:10114000016B01EB06214942801C294405D011F8AE
:10115000016B05F8016B401EF9D1A3420ED013F8C4
:10116000016B16F0030104BF13F8011BC91C300901
:101170000F28DAD113F8010B0F30D6E7F0BC02F1DB
:101180000C0070471B48704770B45368D418042B88
:1011900009DA41B1057804F8015B10F8016B16B16A
:1011A0005B1C491EF3E7536070BC704738B51446AA
:1011B0001D4661B1FFF7E8FF61686A6B2046904702
:1011C0006FF00102811A02D0491E01D001E003E054
:1011D00005E00021616032BD6FF0010032BD4FF0CB
:1011E000FF3032BDDA6B1047024BDFE7014BF9E706
:1011F00001487047E0000020A8000020C9B2027832
:101200008A421AB11CBF10F8012FF9E718BF00205D
:10121000704730B4002513E050F8042BD30744BFC7
:10122000A9F101039A18091F042942F8045BFAD2B4
:1012300013468C0744BF15809B1CC90748BF1D700F
:1012400050F8041B0029E7D130BC704780B500B9C5
:1012500006A005490B681BB122220021984701E036
:1012600000F007FD222002BDF4050020636F6E73BD
:10127000747261696E742068616E646C65723A2084
:10128000626164206D6573736167650000F101033D
:10129000810704D010F8011B820781B1FAD10268DE
:1012A000A2F10131914311F0803104BF50F8042FB5
:1012B000F6E709BAB1FA81F100EBD100401CC01A7F
:1012C0007047B1F5807F02D34FF0FF307047017057
:1012D000012070470078401E8041C043C00F704716
:1012E000C9B2830706D0521E22D310F8013B99429F
:1012F000F7D11FE0083A13D302F1040241EA0121B9
:1013000041EA014150F8043B121F21BF4B40A3F1B9
:10131000013C2CEA030C1CF0803FF3D0C9B2001F43
:10132000083210F8013B521E28BF91EA030FF8D88B
:1013300018BF0120401E704780B5FFF723FF006CE7
:1013400002BD000062B38B0708D0521E11F8013BAA
:1013500000F8013B00F024808B07F6D1830740F0B2
:10136000208000BF103A07D330B4B1E83810103AEB
:10137000A0E83810F9D230BC530724BFB1E80810F8
:10138000A0E8081044BF51F8043B40F8043BD207E2
:1013900024BF31F8022B20F8022B44BF0B780370D6
:1013A0007047121F17D35B0009D151F8043B20F896
:1013B000023B1B0C121F20F8023BF6D20BE051F847
:1013C000043B00F8013B1B0A20F8023B1B0C121FD8
:1013D00000F8013BF3D238BF121D521E24BF11F892
:1013E000013B00F8013BF8D870470000D3BBD9B1EE
:1013F000B2F5803F5BD2022A1ED98C46B1FBF2F1D6
:1014000002FB11C31B0443EA1043B3FBF2FC02FBD3
:101410001C3380B240EA0343B3FBF2F002FB10320C
:1014200040EA0C4000237047022A05D98446B0FBED
:10143000F2F002FB10C270474AB105D100F0010280
:1014400049085FEA3000704700220023704700F02F
:1014500013BC0B000200002100207047F7D30022CC
:1014600000237047904271EB030CF2D370B5B1FAD0
:1014700081F4B3FA83F52C1BA340C4F1200532FAA2
:1014800005F63343A2405FF00046E64002E05B0809
:101490005FEA3202841A71EB030524BF2046294615
:1014A0007641F4D302000B003000002170BD70B50E
:1014B000B1FA81F4B2FA82F5C4F120046419B4F1EE
:1014C0002006DAD3B2405FF00044F440002502E089
:1014D00052085FEA3303C61A71EB020E24BF30468E
:1014E000714664416D41F3D302000B0020002900D6
:1014F00070BD0000B0B581EA030C0CF0004C40F266
:10150000FF7515EA11541DBF15EA1357AC42AF42DF
:1015100039E0E41923EA455343F48013C90241F04A
:10152000004141EA505EC7021100A7FB02020028F9
:101530004FF00000EEFB01204FF00001E3FB07211C
:1015400018BF42F00102401800214941E3FB0E019F
:10155000A4F580640F0302D252004041494154F186
:1015600001046CDD470872F1004250F1000051EBBC
:101570000451A1F580115CBF41EA0C01B0BD4CEAF9
:1015800005510020B0BD05EA1357AC4214BFAF426D
:1015900041E050EA410E1CBF52EA430E02E06146B0
:1015A0000020B0BD24423C441BD15FEA070EF6D0B8
:1015B000090302BF01460020AEF1140EB1FA81F713
:1015C000AEEB070401FA07FE0C37C7F1200100FA61
:1015D00007F7C8404EEA000E23EA455343F4801350
:1015E000A2E733F00043B3FA83F704BFB2FA82FEF6
:1015F00077440B3FE41BB7F1200E2FBF02FA0EF326
:10160000BB40C7F1200E22FA0EFE38BF43EA0E039C
:10161000BA40641C82E750EA410E14BF52EA430EFE
:101620006FF000014FF4001717EB430F8ABF194604
:1016300017EB410FB5E74CEA05510020B0BDD4F1DE
:101640000104B4F120070FDAC4F12007520828BFC3
:1016500042F0010210FA07F501FA07F7E1BF2A4349
:10166000E0403843E1400FE0352C98DCC7F120041E
:1016700052EA400220FA07F218BF42F0010231FAA2
:1016800007F0A1400A43002172F1004250F100002E
:1016900051EB0C01B0BD000010B5144600F002F88B
:1016A000226010BDC1F30A5343B14A0012F5001F76
:1016B00028D2A3F2FE32A1EB0251704750EA410C4E
:1016C00020D001F0004C31EA0C01B1FA81F204BFE4
:1016D000B0FA80F3D2180B3AB2F120032CBF00FA13
:1016E00003F1914041EA0C013EBFC2F1200C20FA07
:1016F0000CF319439040524240F2FD33D21A01EBF1
:1017000003517047002270474FF4001C1CEB410F3F
:1017100094BF1CEB430F09E041EA030C50EA4C0C68
:1017200052EA0C0C03D2994208BF9042704714BF92
:101730008B428242704700004FF4001C1CEB410FAB
:1017400094BF1CEB430F09E041EA030C50EA4C0C38
:1017500052EA0C0C03D28B4208BF8242704714BF7E
:101760009942904270470000124254D440F2FF7CEC
:101770001CEA11530FD0634531D09B1863453CBF21
:1017800001EB0251704701F0004141EA0C51002089
:10179000AFF30080704750EA410320D001F0004CC5
:1017A00091EA0C011CD0B1FA81F30B3B9A420DD99E
:1017B000D21A994051EA0C01C3F1200C20FA0CFC1A
:1017C00061449840531C40F2FF7CD7E7914041EAC6
:1017D0000C01C2F1200C20FA0CF319439040704721
:1017E000B0FA80F31533202BE0D3202AEED3203A31
:1017F000203B9A4209D9D21A00FA03F141EA0C01BE
:101800000020531C40F2FF7CB8E700FA02F141EAE5
:101810000C0100207047524240F2FF7C1CEA115339
:101820000DD06345DBD0B2EB030C3CBFA1EB025102
:1018300070470CF1010221EA035141F4801150EA92
:10184000410CCCD001F0004C352A27DC30B481EAC1
:101850000C01B2F1200309DAC2F12003044601FAB7
:1018600003F5D0402843D1409C400CE0C3F1200256
:10187000450020FA03F418BF44F0010421FA03F0F4
:1018800091400C43002174F1004550F1000051EBF0
:101890000C01244230BC7FF47BAF704761460020CE
:1018A00076E70000C1F30A5340F2FE329B1A14DDC2
:1018B000D3F120034FEAE17208DDC90241EA505139
:1018C00041F00040D84080185040704703F2E130AA
:1018D00010B1D24382F000407047002070470000F2
:1018E000C11768B14840401AB0FA80F29040D21C4B
:1018F000C907C2F5846241EA025202EBD0214005D9
:101900007047000070B44FF0004591EA030F40F1BA
:10191000B5816B40841A71EB030603D2001BB14101
:10192000121973414FF4001C1CEB410F34BF7CEBC8
:10193000430442E00C0DA4EB1356352E4FDC45EA70
:10194000C323DB0A45EAC121C912B6F120050DDD2A
:1019500063FA05F6EB4086EA0305124218BF45F02C
:101960000105C01851F100010CD213E062FA06F52E
:10197000F2405540F3415A40B340F3405A4080187A
:10198000594107D349085FEA30005FEA350528BFAF
:1019900045F0010501F58011420875F1004250F152
:1019A000000041EB04514E0016F5001F70BC38BF1B
:1019B00070470020090D090570471CEB410F10D23C
:1019C00052EA43060BD0BCEB410F05D80C0DAB43DC
:1019D000661E342EB6DD02E0AB438018594170BC60
:1019E000704770BC70470000F0B540F2FF7581EAA7
:1019F000030C0CF0004C15EA11541DBF15EA1357E7
:101A0000AC42AF42E5E0BC41C1F31301C3F31303A1
:101A1000801A994143F4801304D2641E4000494166
:101A200080185941C90241EA5051B1FBF3F603FB5A
:101A30001611A2FB0675D7EBC020A94102D2761E73
:101A400080185941C90241EA5051B1FBF3FE03FB32
:101A50001E11A2FB0E75D7EBC020A94103D2AEF137
:101A6000010E80185941890241EA9051760546EAF3
:101A70008E2EB1FBF3F603FB1611A2FB0675D7EB16
:101A80008020A94102D2761E80185941C90241EA3C
:101A900050514EEA060EB1FBF3F603FB1611A2FB02
:101AA0000675D7EBC020A94102D2761E8018594195
:101AB000C90241EA5051B1FBF3F703FB1711A2FB36
:101AC0000735D3EBC020A94167F100070CBF0042E6
:101AD00047F0010766F3D5274FEA1E31B80814F521
:101AE000806412DDBD0775F1004250EB0E5051EBE2
:101AF000045111F5801F5CBF41EA0C01F0BD4CF0B0
:101B00007F6141F0E0410020F0BDBD076D0840EA73
:101B10000E5041F48011D4F10104B4F120060ADA28
:101B2000C4F120060200E04001FA06F3E140184348
:101B3000B24015430EE0342C13DCC6F1200445EA14
:101B400040056D0820FA06F2154321FA06F0A1407F
:101B50000D43002175F1004250F1000051EB0C01E2
:101B6000F0BD00205FEA0C01F0BDCFB992185B41D7
:101B7000B3FA83F704BFB2FA82F6BF190B3FB7F18D
:101B800020062FBF02FA06F3BB40C7F1200622FA57
:101B900006F638BF3343BA401CB1E419641E33E77C
:101BA0007F4231F00041B1FA81F404BFB0FA80F60F
:101BB000A4190B3CB4F120062FBF00FA06F1A14096
:101BC000C4F1200620FA06F638BF3143A0403C1B82
:101BD0001AE7AC421ABF05EA1357AF4212E050EAC7
:101BE00041061CBF52EA4306BFE750EA41073046B0
:101BF00061461CBF41EA0551F0BD52EA430C08BFE3
:101C0000C143F0BD00204FF4001616EB410F98BF02
:101C100016EB430F08BF16EB410F24BFC14305E08D
:101C200016EB430F0CBF61464CEA0551F0BD0000B6
:101C3000400D491840EA81200CD2490DA1F5806180
:101C4000491C40F0004005DBD1F11F0154BFC840E2
:101C5000C017704700207047014648B1B0FA80F1C4
:101C60008840C91CC1F58461090501EBD0214005FC
:101C70007047012000F0B8B870470000841A71EB7B
:101C8000030604D26E40001BB141121973414FF498
:101C9000001C1CEB410F34BF7CEB430683E00C0DB2
:101CA000A4EB1356362E00F37C80012E45EAC323A5
:101CB00041DC43EA525312BFD20292025B08240570
:101CC00045EAC12141EA5051D2EBC020994125D4C7
:101CD00007D1B0FA80F610FA06F162D00020203663
:101CE00008E0B1FA81F6B140C6F1200220FA02F212
:101CF0001143B0404FEAF474B4EB465434F001069B
:101D00004FEA74040AD8D6F50016760D04F00044A4
:101D1000F04061FA06F25040F1404840C00A40EA03
:101D2000415021F0004128BF5FEA500550F100000A
:101D300044EBD12135E0DB0A45EAC121C90AB6F1FD
:101D400020050EDD42EA0242120CC5F1200603FA1C
:101D500006F6EB4042EA06056D42984161F100014A
:101D60000DE062FA06F5F240554063FA06FC82EA9D
:101D70000C02F3405A406D42904161EB030111F4B3
:101D8000801F05D1641E620502D06D0040414941AB
:101D900021F48011430875F1004350F1000041EB3C
:101DA000045170BC70471CEB410F15D223F0004367
:101DB00052EA43060BD04FEA4C0CBCEB410F04D85F
:101DC0000C0D661E342EB7DDEBE7801A994150EA00
:101DD000410608BF0021E4E708BF1CEB430F28BF02
:101DE0006FF00001DDE7000080B5AFF30080024A2C
:101DF00011001820ABBEFBE72600020038B5040036
:101E000001D1012032BD00F03EF818B900F037F8DA
:101E100000F0B2FC0FE00068C16841F00101C16050
:101E2000816801F00701062903D0016841F0010132
:101E300001600020704702206870211D206800F0BA
:101E4000D2F901206870002032BD38B5040001D1FC
:101E5000012032BD00F017F818B900F010F800F0BA
:101E600076FCE8E738B5040001D1012032BD00F06E
:101E70000AF818B900F003F800F02EFCDBE70021A7
:101E800029702046704704F13C056878704710B50A
:101E90000446206801698A0715D5C1688A0712D5EA
:101EA0006FF00201016101222277806910F0030FB7
:101EB000204602D000F0D2FD03E000F02BFE00F03F
:101EC00087F800202077206801694A0715D5C16886
:101ED0004A0712D56FF0040101610222227780695E
:101EE00010F4407F204602D000F0B8FD03E000F07F
:101EF00011FE00F06DF800202077206801690A07C4
:101F000015D5C1680A0712D56FF0080101610422D6
:101F10002277C06910F0030F204602D000F09EFD2A
:101F200003E000F0F7FD00F053F800202077206870
:101F30000169CA0615D5C168CA0612D56FF010012D
:101F4000016108222277C06910F4407F204602D048
:101F500000F084FD03E000F0DDFD00F039F8002022
:101F6000207720680169CA0708D5C168CA0705D566
:101F70006FF001010161204600F0CDFD206801698C
:101F80000A0608D5C1680A0605D56FF0800101610F
:101F9000204600F0C1FD206801694A0608D5C168E5
:101FA0004A0605D56FF040010161204600F0B5FDFD
:101FB000206801698A060AD5C1688A0607D56FF0CC
:101FC000200101612046BDE8104000F0A7BD10BD12
:101FD000204600F0A4BDF8B500F0DDF801D10220E4
:101FE000F2BD00F0E5F882B9EB686A6829683068EC
:101FF00000F0F2F93068816921F00C0181613168EB
:102000008A69A86802438A615CE0042A10D1EB68FF
:102010006A682968306800F025FA3068816921F41F
:10202000406100F0B4F8AA6841EA0221816149E008
:10203000082AE9686A682B6823D13768386A20F46F
:10204000807038621B0207F11C0003F42063D0F893
:1020500000C0D7F820E04FEA9C0C42EA8C0261F302
:10206000071202602EF4206003433B623068C169AE
:1020700021F00C01C1613168CA69A8680243CA61D4
:1020800020E030681C301B03476827F48057476006
:1020900003F420430768D0F804C027F4407747EAE8
:1020A000022761F30F372CF4204107600B43436094
:1020B0003068C16921F4406100F065F8AA6841EA1E
:1020C0000221C16100F06EF8F2BD70B500F063F856
:1020D00001D1022070BD00F06BF832B1042A17D094
:1020E000082A28D00C2A39D04AE03068294600F066
:1020F000C5F83068816941F0080100F048F821F026
:102100000401816131688A69286902438A6137E084
:102110003068294600F0DEF83068816941F40061DA
:1021200000F035F821F4806100F031F82A6941EAC5
:102130000221816124E03068294600F0FBF8306814
:10214000C16941F0080100F01EF821F00401C161ED
:102150003168CA6928690243CA6111E030682946BA
:1021600000F017F93068C16941F4006100F00BF824
:1021700021F4806100F007F82A6941EA0221C16177
:1021800000F010F870BDC1613068C16970478161AD
:10219000306881697047064606F13C040D46207898
:1021A00001287047012060700021217000207047D5
:1021B000012020700221617070470246002031B179
:1021C000042907D0082908D00C2909D070471068C5
:1021D000406B70471068806B70471068C06B704729
:1021E0001068006C7047F0B5934C0568934B944EA3
:1021F000944FDFF854C2A04218BFB0F1804F07D00F
:10220000604518BFB84203D0B04218BF98420DD104
:102210004A6825F070051543A04218BFB0F1804F01
:1022200017D060451CBFB842B04212D098421CBFC4
:10223000864A90420DD0864EB0421CBF854A9042DD
:1022400007D0854EB0421FBF844A9042844EB042B0
:1022500003D1CA6825F4407515434A6925F0800505
:1022600015430560A0428D68C5620A68826212BF8C
:1022700098420969016301224261F0BDF0B5026A2A
:102280006D4F520852000262066A446885690B6805
:102290008A6825F0730526F002061D431643674B36
:1022A000B84218BF984207D1CA6826F008061643FC
:1022B000B84226F0040601D0984205D14B698A69DC
:1022C00024F440741C4314434460856149684163AD
:1022D0000662F0BDF0B5026A574E22F010020262AB
:1022E000B042056A436884690A6824F4E64444EA13
:1022F00002248A6825F0200545EA02154F4A18BFD6
:10230000904208D1CF6825F0800545EA0715B04214
:1023100025F0400501D0904206D14E698A6923F428
:102320004063164343EA86034360846149688163DE
:102330000562F0BDF0B5026A22F480720262056A9D
:102340004368C4698E680A6825F4007524F0730434
:1023500045EA06251443384E384AB04218BF904229
:1023600008D1CF6825F4006545EA0725B04225F479
:10237000806501D0904206D14E698A6923F44053AA
:10238000164343EA06134360C4614968C1630562AA
:10239000F0BD70B5026A284E22F480520262B0424B
:1023A000046A4268C3690D6823F4E64343EA0523DF
:1023B0008D6824F4005444EA05341CBF1F4DA84224
:1023C00004D14D6922F4804242EA85124260C36121
:1023D00049680164046270BDF0B5046A164E640871
:1023E00064000462B0428469056A18BFB0F1804F8E
:1023F00011D0154EB0421CBF124FB8420BD0104E38
:10240000B0421CBF0D4FB84205D0104EB0421CBFA9
:10241000114FB84203D1A40842EA840201E044F01B
:10242000010263F3071225F00A0501F00A01826137
:1024300029430162F0BD000000000140000401409A
:10244000000C004000080040000400400040014033
:10245000004401400048014000180040001C0040BA
:102460000020004030B5046A24F010040462090121
:102470008469056A24F4407444EA022463F30F3447
:1024800025F0A00501F0A00184612943016230BD5F
:1024900081B0002000900022DFF86C05416841F413
:1024A00080414160416801F48041009100990092AF
:1024B000036843F080530360006800F08050009090
:1024C000009801B0704770B586B000F000F925683B
:1024D000DFF83865B5423DD100F0E9F8DFF8305556
:1024E000416941F480714161416901F4807100F0FA
:1024F000DAF86421036843F00103036003220068F3
:1025000000F0010000900098DFF8080501910292A8
:102510000021039100F08BF8DFF8FC042860002113
:102520006960E9604FF480504FF48061686129610F
:102530004FF4807000224FF48041E861AA60A961E5
:102540002A626A62284600F0EBFA08B100F02CFF1C
:10255000A563AC6306B070BD38B586B000F0B7F8BF
:102560002468DFF8B854AC4212D100F0E9F841F029
:1025700000710161016901F0007100F094F84FF4FD
:10258000C05100F018FA00F098F8092100F04DF859
:1025900007B030BD38B586B000F099F82468DFF890
:1025A0008054AC423FD10020DFF87844009021688D
:1025B00041F0040121600021206800F00400009037
:1025C000009800914FF40071226842F001022260ED
:1025D0001222206800F0010000900098DFF8480403
:1025E00001910292012103910322042100F01DF8C0
:1025F00012210291012203924FF480700321019075
:1026000004910422059201A9DFF8080400F0D6FE27
:1026100000200090216941F400012161206900F44B
:1026200000000090009807B030BD0591049201A908
:1026300000F0C4BE38B586B000F049F82468DFF871
:10264000EC53AC422BD100F032F8416941F4805197
:102650004161416901F4805100F025F8036843F0BD
:1026600001030360016801F0010100F01CF84FF460
:10267000004100F097F900F020F80521FFF7D5FFA1
:10268000022102910022039238200321019004913B
:102690000522059201A9DFF8980300F08FFE07B02C
:1026A00030BD01F0020100910099009270470020B6
:1026B00000900022DFF86C03704700900098DFF86C
:1026C00054030191029200210391032270470446B2
:1026D00001A8142100F06CBF38B586B0FFF7F7FFF2
:1026E0002468DFF85053AC4228D100F029F841F0BB
:1026F000020101610169FFF7D4FF036843F002039F
:1027000003600168FFF7CDFF032100F042F900F0FC
:102710006FF80121039100220221FFF786FF0221B9
:10272000029101220392C020002101900491022213
:10273000059201A9DFF8F00200F040FE07B030BDBD
:10274000002000900022DFF8DC020169704781B0B0
:102750000068DFF8E41288420CD10022DFF8A802FA
:102760000092016841F004010160006800F004007B
:102770000090009801B070470068DFF8C0128842EE
:1027800000D0704780B500229F480092016841F454
:10279000807101600021006800F480700090009852
:1027A0002D2000F023FFBDE802402D2000F03BBFAC
:1027B00038B586B0FFF78BFF24689F4DAC4215D12A
:1027C0000020009002229748016841F00201016058
:1027D0004FF47071006800F0020000F009F8002169
:1027E0000391049102210591FFF721FF07B030BD4D
:1027F000009000988E48019102927047F8B586B01B
:1028000004466846142100F0D3FE21688C4A864DA8
:10281000844891421DD100210591026942F40022B1
:1028200002610022016901F40021059105990592D8
:102830004FF4406100F0ADF80590059800910192C9
:10284000012102910322082104910392694628463E
:1028500053E07C4A91424FF4807635D100210591B6
:10286000026942F4801202610022016901F48011C0
:1028700000F0B4F80222036843F008030360016823
:1028800001F0080105912846059901920021029165
:1028900003220721049103920096694600F08EFD01
:1028A00002210191012202924FF4805000F0A4F81D
:1028B000284600F083FD02210191012204200292AA
:1028C00000F09AF8604818E0604A914218D100215F
:1028D0000591426942F0100242610022416901F013
:1028E00010010591059905924FF4C06100F063F85D
:1028F00005900598474800F067F800F05FFD46E056
:10290000534A914243D1002105910269514F42F44B
:10291000802202610022016901F4802100F05EF84A
:10292000202100F03FF80590059800F04DF828466A
:1029300000F044FD02210191012202920321039142
:1029400007224FF48065049200956946384800F0EC
:1029500035FD414838604FF0006100227960BA606F
:10296000FA607A61BA613A627A623D61FE61384624
:1029700000F0D6F808B100F017FD6763BC630022D1
:102980000021272000F032FE272000F04CFE07B087
:10299000F0BD036843F0040303600222006800F006
:1029A00004007047036843F00203036002220068DA
:1029B00000F002007047036843F001030360022245
:1029C000006800F00100704700910192012102911E
:1029D00003220721049103926946704705910599E6
:1029E0000592036843F004030360016801F00401E9
:1029F00005910599059270470321009003910822E3
:102A000004926946704700004038024000200140AF
:102A10007404002000000240106402400064004082
:102A2000005C0040303802400008024000300140A5
:102A30000004024000040040000800400020004064
:102A4000004C004000500040000C024000100140CB
:102A500000480040D40400202860024070B50646BB
:102A600027493068884204BF307F012843D1254D73
:102A7000224C296820780028086A20F00A000862A1
:102A800009D10A6A42F002020A62002100F03EF80F
:102A9000A061012006E0086A0862002100F036F813
:102AA000E06100202070207828B9E069A1698142A6
:102AB0003CBF401A2063307F02281CD1296860780F
:102AC0000028086A20F0A0000862086A06D140F0D9
:102AD000200000F019F82062012003E000F014F853
:102AE000606200206070607828B9606A216A814263
:102AF0003CBF401A606370BD0000000084050020E8
:102B000000040040FC020020086204212846FFF770
:102B100054BB00007047704770477047704770475C
:102B200070B5044600F0AAFD06460CB9012070BD40
:102B300004F13405002028700221697020680268C1
:102B400052085200026022681068C10722D500F0C6
:102B500095FD801B0628F6D320202862032169708A
:102B6000032070BDB0F5005F09D1032E42D8DFE825
:102B700006F00C0A0C02B1F1C07F3BD105E0022E39
:102B800003D9F61E36D1C80134D54021296201206F
:102B9000687070BD1368DFF8900261680340A06838
:102BA0000B43E168034320690B4361690343A06958
:102BB0000B43E1690343206A0B43616A0343042921
:102BC00003D1E16A206B01430B43136023685A6908
:102BD000606AD208042840EAC2020BD1A66AE16A00
:102BE000324339B1A0690028BCD1002E18BF022E93
:102BF000C9D0C0D35A61204600F034F9A96A3F22F7
:102C00008A408260002028620121697070BDF8B599
:102C1000044604F1340600253078776A012801D192
:102C20000220F2BD01203070707801281CD10220F2
:102C300070703562204600F005F9B06A3F2101FA54
:102C400000F0B8602068016841F016010160F0688A
:102C500020B12068016841F0080101602068016826
:102C600041F00101016001E0357002252846F2BD06
:102C700090F83510022903D0802242650120704768
:102C8000052180F835100068026852085200026081
:102C9000002070472DE9FC41044604F13406002071
:102CA000624900904FF41650776A0A683D68B2FB9B
:102CB000F0F8B06A082100F0BCF80ED02068026875
:102CC00053070AD5026822F004020260B06A81400C
:102CD000B960316A41F001013162B06A25FA00F150
:102CE000CA070BD521684A69110607D5012202FAE5
:102CF00000F0B860306A40F002003062042100F059
:102D000097F808D021680A68930704D5B860306A3C
:102D100040F004003062102100F08AF819D02168D8
:102D20000A68130715D5B860206801684A0307D5FB
:102D30000068010309D5716959B12046884708E048
:102D40000168CA0501D400F078F8F16809B120469D
:102D50008847B06A202100F06CF843D021680A68E7
:102D6000D3063FD5B86020687178052920D1026864
:102D700022F0160202602068416921F08001416161
:102D8000F068002804BF7069002802D0206800F0B5
:102D900054F83F22B06A8240BA60002131700122AB
:102DA0007270F16900293CD02046BDE8FC4108471B
:102DB00001684A0307D5006801030FD4316989B15E
:102DC000204688470EE00168CA0507D4016821F053
:102DD000100101600020307001227270B16809B1E9
:102DE00020468847306AE0B1306AC10713D5052014
:102DF0007070206801684908490001600098401C13
:102E00008045009003D320680168CA07F6D40020EB
:102E1000307001217170B16919B12046BDE8FC41E3
:102E20000847BDE8F38100003F8010F0A4000020B7
:102E3000B06A01FA00F005427047016821F008010C
:102E40000160704730B50468256825F48025256049
:102E500063608068402802D1A260E16030BDA1605B
:102E6000E26030BD30B5016808A401F0FF02103AFD
:102E70001823B2FBF3F2890A8902A55CC565042A0E
:102E800028BF091D8165084630BD000000061016E8
:102E9000000610162DE9F04389B000F0F5FB00F0B4
:102EA000A7F900F0F2F9002000904FF4E138DFF8C4
:102EB0009C04DFF89C440168DFF8986441F48001C9
:102EC000016004F13005026802F4800200920022E1
:102ED000009900920321036843F40013036004F196
:102EE0006007006800F40010009000980C2000F0CB
:102EF0007DFB0C2000F097FB00220221382000F01F
:102F000075FB382000F08FFB6846102100F050FB65
:102F1000DFF8440420604FF48031012020612076E6
:102F200061600022DFF83404A06201210320E06127
:102F3000A26084F82020E262E2602970616120468C
:102F400000F0BCFB022001210090019100220292BE
:102F500000F046F905210091022200F040F9062117
:102F60000091032200F03BF9DFF8F403A86105218A
:102F7000002028626862E9614FF4A020A8624FF443
:102F8000801100203860B880E96204F1480000F048
:102F9000CDFDDFF8D003B86604F1E0050020386706
:102FA0007867B8670C2128606860F967C7F86C809B
:102FB00004F1C80000F0D0FEDFF8AC0370654FF4F8
:102FC0007A31B16500200C21F06530667066B1661B
:102FD000F066306704F5E47906F1540000F0BCFEB9
:102FE000DFF88803A86200210C20E8632963696385
:102FF000A96300204FF4807168642964C5F82C80AF
:1030000004F5847000F0A8FED94838614FF482714D
:1030100079610020B86100213862F9617962F96252
:1030200039637963B9634FF48020B8620A21F96388
:1030300004F1700001F06EF90FF270301021D0E948
:103040000023CDE90423684600F0B2FA04F5B07716
:10305000C848B8620021F96239637963B963396499
:1030600004F5C4784046FEF7FDFE00210491059169
:10307000404604A901F090F901220192002100913B
:1030800002910022039200F0AFF8042200F0ACF8A5
:10309000082200F0A9F80C2200F0A6F8C5A204F559
:1030A000F078D2E90001CDE9000102A81C2100F06E
:1030B0007FFAB148B8660021F96639677967B96760
:1030C000C8F800104846FEF7C0FE002100910191AB
:1030D0004846694601F060F960210291002203929E
:1030E0000492069200F077F8042200F074F80822A7
:1030F00000F071F80C2200F06EF84846FFF758FB1C
:103100009E4830600021B1600020F0604FF48041A3
:103110007061B061F061306231613046DFF8609219
:10312000C6F8049001F07EF99648A8664FF48051E5
:1031300029674FF4005068674FF48061A967042045
:10314000C5F86C90E86700213960796004F5A475D2
:10315000284600F001FE8C48C8F828005A21C8F81B
:103160002C100020C8F830004FF47A71C8F83800ED
:10317000C8F84000C8F8341004F502763046FEF76F
:103180003DFE1E228149204600F0CFFA04F148009E
:1031900000F043FD3046FFF7EFFA3046FEF73BFE06
:1031A000192204F51271284600F06BFE4FF4FA6004
:1031B00001F0E0F964A4764D764E30680A28FCD917
:1031C00000213160284601F0E9F901F059FA204662
:1031D00001F0E4F9F1E702A94846FEF776BF019253
:1031E0006946204600F02BBB69464046FEF7F3BE19
:1031F00000B593B006A8342100F0DAF901A8142133
:1032000000F0D6F9002000906348016841F0805139
:1032100001600021006800F08050009000985F4835
:1032200000910121026842F4404202604FF4803272
:10323000006800F440400090009806910792022137
:103240004FF480020C910D9209214FF487720E9178
:103250000F920421022210911192129206A801F0FD
:1032600008FB01F099FC03210291002203920F2038
:103270004FF4A051019004914FF480520592052122
:1032800001A801F0C5FC13B000BD10B586B001A8BF
:10329000142100F08DF900242C4800940168404C62
:1032A00041F004010160026802F004020092002271
:1032B00000990092036843F080030360016801F005
:1032C0008001009100990092036843F001030360BC
:1032D000016801F00101009100990092036843F038
:1032E00002030360016801F002010091009900925D
:1032F00044F21801036843F008030360006800F01B
:10330000080000900098204600F032F901220721C1
:10331000204600F02DF944F21F0101910122002105
:1033200003910491029201A9204600F047F84FF45E
:1033300070400021019002910122039201A91948D5
:1033400000F03CF806B010BD0D0A00003038024015
:103350007401002000000020002001400100000F47
:1033600000640040004C004000100140005000404C
:10337000003001400004004000080040005C0040B4
:10338000A08601000048004000200040F403002017
:10339000C8510008E4050020403802400070004099
:1033A00000080240000402407047000000000000D6
:1033B0000000000000000000000000002DE9F84FB0
:1033C0000D464FF0000870490F22012304462E6875
:1033D00003FA08F000EA0609814540F0BB804FEA95
:1033E000480C032606FA0CF66FEA060E6E68012EEC
:1033F00018BF022E03D0112E18BF122E11D1A668AD
:10340000EF680EEA060607FA0CF73E43A660666808
:1034100026EA00006E68C6F3001606FA08F6304386
:103420006060E068AE680EEA000006FA0CF6304311
:10343000E0604FEA88006E68022E18BF122E12D18B
:103440004FEAD80604EB860600F01C07D6F820A049
:1034500002FA07FB2AEA0B0AD5F810B00BFA07F7B5
:1034600047EA0A07376226680EEA06072E7906F051
:10347000030606FA0CF63E4326606E68F60069D530
:10348000002600964FEA980C0E68DFF800E146F43B
:1034900080460E6000F00C000E6806F48046009630
:1034A000009E5EF82C7002FA00F627EA0606384FF6
:1034B000BC4208BF00271DD0364FBC4208BF0127C1
:1034C00018D0354FBC4208BF022713D0334FBC423F
:1034D00008BF03270ED0324FBC4208BF042709D0D3
:1034E000304FBC4208BF052704D02F4FBC420CBF51
:1034F0000627072707FA00F030434EF82C006FEA42
:10350000090C2A4806680CEA060E6E68F70348BFE5
:1035100049EA0E0EC0F800E046680CEA060E6E6836
:10352000B70348BF49EA0E0EC0F804E086680CEA0B
:10353000060E6E68F70248BF49EA0E0EC0F808E0B2
:10354000C6680CEA060E6E68B60248BF49EA0E0E5F
:10355000C0F80CE008F10108B8F10F0F7FF637AFA3
:10356000BDE8F18F0069084018BF0120C0B2704764
:1035700002B909048161704742690A408A4208BF62
:103580000904816170470000443802400838014056
:10359000000002400004024000080240000C02400B
:1035A000001002400014024000180240003C01409C
:1035B000002201F0D3BB00000901020002D4294817
:1035C00081547047284B02F00F021A4402F8041C81
:1035D0007047264B19684FF6FF020002114000F4B5
:1035E000E0600843224908431860704738B51F4B14
:1035F0001C68C4F30223C3F10704052C28BF04246C
:103600001D1D072D34BF0023DB1E012505FA04F420
:10361000641E2140994005FA03F35B1E1A401143D2
:10362000BDE83440C8E7010007D4012200F01F01C3
:10363000104B8A40400943F82020704710B5401EC7
:10364000B0F1807F01D3012010BD0B4C60600F21D1
:103650004FF0FF30FFF7B0FF0021A160072020608E
:10366000002010BD00E400E018ED00E00CED00E0EB
:103670000000FA0500E100E010E000E001484068C9
:10368000704700BF9800002080B50B48016841F4E6
:1036900000710160026842F480620260016841F4D6
:1036A000807101600320FFF794FF002001F070FBA0
:1036B000FEF7EEFE002002BD003C024070B504465D
:1036C00000250CB9012070BD04F13C06706820B9DA
:1036D0002046FEF7F8FEB56035707068C10610D45C
:1036E000706820F4885040F002007060204600F0BE
:1036F0004AF9B560716821F0020141F00101716081
:1037000000E0012500203070284670BD816841F03E
:10371000804181607047126802F01F02102A7047D2
:10372000016841F0804101607047F8B5044600200F
:1037300004F13C0300901D78012D01D10220F2BD5F
:103740000120187020688568EE070FD48568DFF8BF
:10375000486345F001058560DFF840030568B5FB67
:10376000F6F606EB4606009600F005F92568A8680F
:10377000C60762D55F68DFF81803074047F4807713
:103780005F606868450505D5586820F4005040F42E
:10379000805058605868C50446BF986820F00600FD
:1037A0000020986000251D70A36B0FF2FD20D863E8
:1037B000A36B0FF25D301864A36B0FF25D30D86419
:1037C0006FF02200256828602068436843F080631A
:1037D000436013462068856845F4807585600A4615
:1037E000206800F14C01A06BFFF711FA2068A44A91
:1037F000A849136813F01F0F16D188420DD0A149B4
:10380000884204D1126812F01F0F16D105E09E49BC
:10381000884212D1FFF77FFF0FD2816811F0405F1D
:103820000BD1FFF773FF08E0884202BF9748016899
:1038300011F0405F01D1FFF773FF0020F2BD78B5B2
:1038400002460020009092F83C30012B01D102206A
:1038500072BD012082F83C0007240B6810680A2B17
:1038600012D30A3BC56803EB43039C4025EA0404DA
:10387000C460C3680D688C68A5F10A0606EB4606AD
:10388000B4402343C3600FE0056903EB430304FA2C
:1038900003F325EA0303036103690D688C6805EBF4
:1038A0004505AC40234303611F244B68072B0CD212
:1038B0005B1E456B00F059F84463436B4D680C8800
:1038C0006E1E00F04DF843631BE00D2B0CD2DB1F86
:1038D000056B00F04AF80463036B4D680C88EE1F1B
:1038E00000F03EF803630CE00D3BC56A00F03DF8C4
:1038F000C462C36A4D680C88A5F10D0600F030F86B
:10390000C362644B984226D10C685D48122C07D1E3
:10391000036823F400030360046844F48004046033
:103920000B685F4CA34218BF112B14D1036823F41A
:1039300080030360056845F4000505600868A0423F
:1039400009D15649544C0B68B3FBF4F40A204443A4
:10395000009400F010F8002182F83C10002072BDA5
:1039600006EB8606B4402343704703EB83039C4079
:1039700025EA0404704702E00098401E0090009879
:103980000028F9D170473E4A116821F44031116096
:10399000136841680B4313600268536823F4807313
:1039A00053605168036941EA03215160516821F075
:1039B00040715160536881680B435360936823F4EE
:1039C000006393609368C1680B4393603549836AD1
:1039D0008B4210D0936823F0706393609368816A80
:1039E0000B439360936823F0405393609368C16ADC
:1039F0000B43936007E0916821F0706191609168DA
:103A000021F040519160916821F00201916091682C
:103A1000037E41EA4301916090F82010002951682B
:103A20000CD041F400615160516821F46041516053
:103A30005168436A5B1E41EA433101E021F40061B1
:103A40005160D16A21F47001D162D16AC3695B1EF1
:103A500041EA0351D162916821F40071916091684B
:103A600090F8303041EA43219160916821F48061FF
:103A700091609168406941EA80219160704700003F
:103A800004230140002101400022014008200140A0
:103A9000FEF9FFFF0020014040420F00A40000207B
:103AA000120000100100000F816B0A6C12F0500F21
:103AB00024D1086C40F4007008640A68906810F023
:103AC000405F04BF087E002815D1D06A10F4700F43
:103AD00002D0906843050ED4506820F0200050605A
:103AE000086C20F480700864086CC20403D4086C6D
:103AF00040F001000864084601F06AB90A6CD30678
:103B000044BF084601F065B9896BCA6C10470000D4
:103B1000806B01F05FB90000806B40210164426C52
:103B200042F00402426401F054B9000038B50400C8
:103B30001ED094F8200010B92046FEF70DFD206835
:103B4000016821F002010160FFF798FD0546206839
:103B500041688A074ED5FFF791FD401B0B28F6D32D
:103B600004E0FFF78BFD401B0B2846D300F07BF8E9
:103B7000012032BD016821F080010160607E00F00B
:103B800048F80CBF41F0400121F040010160A07EE7
:103B900000F03FF80CBF41F0200121F0200101604E
:103BA000E07E00F036F80CBF21F0100141F010016A
:103BB0000160207F00F02DF80CBF41F0080121F0DA
:103BC00008010160607F00F024F80CBF41F004019F
:103BD00021F004010160A268E06821690243606984
:103BE0000A43616802432068491E0A43C2610021FA
:103BF000616240E000F044F8054620684168CA0769
:103C0000AFD5217E0129B5D1026842F08002026061
:103C1000B4E7012820680168704738B5044694F875
:103C20002000012816D1022184F8201020680268A3
:103C3000520852000260FFF721FD054620684168E6
:103C4000C8070DD5FFF71AFD401B0B28F6D300F06F
:103C50000AF803E0606A40F400206062012032BD8F
:103C60000020606232BD606A40F40030606205216D
:103C700084F820107047012084F82000002032BD15
:103C8000016841F001010160FFF7F8BCF0B590F860
:103C900020400568AD68012C18BF022C55D115F0E5
:103CA000E05F4ED0C5F30164032C03D3416A41F4B5
:103CB00000014DE00125A5401D6024010368CE6888
:103CC00003F5C0758B681BB90B6846EA435603E0E1
:103CD0004F6843EAC7031E432E5105680B6905F57B
:103CE000C2763351097D012906D1036803F5C271FB
:103CF0000D5945F480750D519379D17955791B048F
:103D000043EA0163117943EA0523056825440B431F
:103D1000C5F88C319378D17855781B0443EA016358
:103D20001178026843EA052322440B43C2F8883124
:103D3000006800F5C070015941F0010101510020F7
:103D4000F0BD416A41F4001102E0416A41F4802172
:103D500041620120F0BD000038B5040001D101200E
:103D600032BD00F021F808B900F022F800F012F896
:103D700000F023F8FFE7416100F001F832BD206850
:103D8000C16841F40051C160002068602021697061
:103D9000A9707047242068702068C16821F4005120
:103DA000C160204600F043BA04F1380568787047D6
:103DB000002129702046FEF721BD2068016921F409
:103DC000904101612068416921F02A0170472DE985
:103DD000F843054605F138070C4678782028164642
:103DE00098463DD1002C14BF002E012039D03878E0
:103DF000012835D0012139700020786021227A70A5
:103E0000FFF73CFC8146AE84EE840020387003E06E
:103E10002A6814F8011B5160E88C20B3E88C411E1D
:103E2000E9844B46A868CDF80080B0F5805F0DD1DD
:103E300000F023F870B920882968C0F308004860B2
:103E40002869002814BF641CA41CE5E700F015F8DD
:103E50000028DDD0032004E020207870002000E05E
:103E60000220BDE8F283CDF800804B4600224021BD
:103E700000F005F80028EFD0ECE70022802128466A
:103E80003DE17CB5044604F138051346A8782028A6
:103E90003ED109B1180001D1012076BD2878012852
:103EA00036D001202870A162A38500226A602220FA
:103EB000A8700026606B0FF2BD12C263606B0FF238
:103EC000ED120264606B0FF2ED12C2640A46606B81
:103ED00006652668606B311DFEF799FE0020009094
:103EE00021680A68009200224B68009300982A70AB
:103EF000CB6843F48073CB602068416941F00101D5
:103F000041612068416941F040014161002076BD76
:103F1000022076BD416921F040014161606B70472C
:103F200038B5044625682968EA686B6911F00F0006
:103F300007D188065FD593065DD52046BDE832409F
:103F40002CE1D80702D412F4907F54D0C80705D5CD
:103F5000D50503D5E06B40F00100E063480705D5C7
:103F6000DD0703D5E06B40F00200E063880705D56C
:103F7000DD0703D5E06B40F00400E063080707D5D8
:103F8000950601D4D80703D5E36B43F00803E36338
:103F9000E06B00286CD0880604D5910644BF20460B
:103FA00000F0FCF820684069E16B0A0701D4400684
:103FB0001BD5204600F0DEF8206841694A060FD57F
:103FC000FFF7A8FF60B10FF2C9110165606BFEF742
:103FD0004FFE00284CD0606B016DBDE834400847AF
:103FE0002046BDE8324000F0F6BE204600F0F3FE69
:103FF0000020E06331BD08062AD5130628D594F8C1
:104000003900212834D1A068B0F5805F206A0BD137
:104010000188C1F30801696020690028206A0CBF8B
:10402000811C411C216203E0411C21620078686010
:10403000E08C401EE08480B2D0B92068C16821F0D5
:104040008001C1602068C16841F04001C16031BD9C
:1040500048060DD551060BD5E86820F04000E86011
:10406000202184F839102046BDE8324000F0B4BE6B
:1040700031BD0000816B00680268D30513D40020B5
:10408000C8850868C26822F48072C2600868426904
:104090005208520042610868426922F040024261BF
:1040A000202081F83A00084600F098BE806B00F0AE
:1040B000BBBE000038B5846B2068406904F1390547
:1040C0002978212906D1010604D50022E284204660
:1040D00000F047F8216848696978222906D140062E
:1040E00004D50021E185204600F044F8E06B40F063
:1040F0001000E0632046BDE8324000F06CBE2DE9C0
:10410000F041069C05460E4690461F462868016809
:104110003140B1420CBF01200020404517D114F1BD
:10412000010FF3D024B1FFF7A9FAC01B8442EDD2EE
:104130002868C16821F4D07100F00CF805F138004E
:1041400020214170817000210170032000E00020D7
:10415000BDE8F081C16028684169490849004161B2
:1041600070470168CA6822F0C002CA60202180F846
:10417000391070470168CA6822F49072CA600168F9
:104180004A69520852004A61202180F83A1070476B
:10419000806B0021C185C18400F01DBE80B590F800
:1041A0003A10222941D18168B1F5805F12D10169AD
:1041B0000368826A0029596805D1C1F3080111809A
:1041C000826A911C04E001F0FF011180826A511C97
:1041D00081620FE001690029816A04D14A1C826270
:1041E00003685A6805E04A1C826203685A6802F054
:1041F0007F020A70C18D491EC18589B299B90168D3
:10420000CA6822F02002CA600168CA6822F480727B
:10421000CA6001684A69520852004A61202180F848
:104220003A1000F0DBFD002002BD022002BDD0B537
:104230000646642732681169F06821F44051014351
:1042400011611924D3682D48B168034030690B43CC
:1042500071690343F0690B430343D3605169B0694B
:1042600021F4407101435161F36925482549B3F5B3
:10427000004F1FD18A4218BF824202D100F056FD82
:1042800001E000F04BFD0246A4FB02017268D30F6F
:104290005200FDF7ABF800F037F8FF00323764202A
:1042A000B7FBF0F0420002F4F87202EB011200F0EA
:1042B00007001DE08A4218BF824202D100F036FD9D
:1042C00001E000F02BFD0246A4FB02017268930F8F
:1042D0009200FDF78BF800F017F83F0132376420A9
:1042E000B7FBF0F000F0F00202EB011200F00F005B
:1042F000316880188860D0BD00000000F369FFFFBE
:1043000000140140001001406421B0FBF1F107FBF3
:104310001107704738B5040001D1012032BD0020DB
:10432000A06204F15005687820B900212970204668
:10433000FEF780F90220687000F027F86268A16833
:10434000E06823680A432169024360690A43A1695E
:10435000024301F40071E0690A43216A0243A06A42
:104360000A4302431A60A169606A2268090C01F0DD
:104370000401014351602068C16921F40061C161F9
:10438000002068600121697032BD2068016821F059
:10439000400101607047000070B500F13C031A78DD
:1043A000012A01D1022070BD01221A7002245C7022
:1043B00005686E68AC680A6826F0700616436E6081
:1043C00002681148824218BFB2F1804F11D00F48E5
:1043D00082421CBF0E4DAA420BD00E4882421CBF27
:1043E0000D4DAA4205D00D4882421CBF0C4DAA4279
:1043F00004D1486824F0800404439460012159707A
:104400000020187070BD0000000001400004004052
:1044100000080040000C0040000401400040014042
:1044200000180040F8B5040025D004F13C05697877
:1044300021B9002028702046FEF7ACF824216970CD
:10444000206802685208520002602068016841F446
:10445000004101602068026822F40042026000F01E
:104460005DFC01466068DFF8F420904205D2DFF879
:10447000F030994205D20120F2BDDFF8E800814218
:10448000F9D32068DFF8E0304668B1FBF3F3B609F2
:1044900043EA861646602668376A6068904206D30B
:1044A0004FF4967043434FF47A70B3FBF0F35B1C08
:1044B000BF0943EA87133362491E2368DE696768D0
:1044C000974206D27F0000F043F8042913D204215A
:1044D00011E0A06820B907EB470700F039F805E0C4
:1044E0001920474300F034F841F4804108050CBF1F
:1044F000012141F40041DFF8740006400E43DE6103
:1045000022681368E169206A23F0C0030B43034368
:1045100013602268DFF85800936821690340E0685F
:104520000B43034393602168CA68A3696069120A58
:10453000034343EA0222CA602068016841F0010196
:10454000016000206860202169702063A870F2BDBE
:10455000B1FBF7F1491CC1F30B017047A1860100C3
:1045600080841E0000093D0040420F000030FFFF24
:10457000007CFFFF38B50446FFF780F814F1010F07
:10458000054602D0044801786418FFF777F8401B0D
:10459000A042FAD331BD00BF980000200EB4C0B5D0
:1045A000024603A800210190009101AB01210448BB
:1045B00078440C30FBF706FE06BC5DF810FB00BF2C
:1045C000250D0000F8B5644C644900202070086097
:1045D00000230025261D20780A68074656F8277014
:1045E0003A440A60401C2070C7B256F827703B441A
:1045F000401C2070C7B2401C56F8277020703D4404
:10460000C0B21E28E7DB0A20B2FBF0F008600A21E6
:10461000B3FBF1F100EE101A84ED1F0AB8EE400A68
:10462000DFED4B0A0A2260EE200A9FED4A1AB5FB25
:10463000F2F220EE811AF3EE051AC4F8802061EE42
:10464000211A11EE900A00F0F1FB02464FEA010335
:1046500046A0FFF7A3FFD4F88010A1F2F37147F250
:104660003050414340F2F372B1FBF2F2A4F8022061
:10467000B4F9021044A0BDE8F440FFF78FBF00007A
:104680007CB500F049FDFFF79DFF344D344C2868A0
:104690000A3840F6F671884249D23248027812B19F
:1046A000012A1ED073BD00BF3DA0FFF777FF296828
:1046B00032204143A1F2DC51216001253EA0FFF7E9
:1046C0006DFF2168E8B200F05CFC2168E8B200F000
:1046D000D1FB0320FFF74EFF6D1CE8B20428F0DB8E
:1046E00073BD00BF38A0204CFFF758FF29680A3976
:1046F00048F6A040414340F6F672B1FBF2F2226068
:1047000001254CF25036226800960023E8B200F0F2
:104710004CFC2168324689B2E8B200F0E5FB032088
:10472000FFF728FF6D1CE8B20428ECDB73BD002105
:1047300021600124E0B200F0C8FCE0B200F0FBFB15
:104740000220FFF717FF641CE0B20428F2DB73BD00
:104750003333534000008039F0030020E805002087
:10476000F0050020F8050020EC05002020427573BC
:1047700020766F6C74616765203D2025312E33668D
:1047800056200D0A000000002042757320637572E8
:1047900072656E74203D2025646D41200D0A000075
:1047A00020537065656420436F6E74726F6C204D8A
:1047B0006F64653A00000000205370656564203D19
:1047C000202564200D0A000020416E676C6520439F
:1047D0006F6E74726F6C204D6F64653A000000005C
:1047E00000200860FEF74ABF2DE95041DFF89C43E6
:1047F000DFF890636068DFF8908300F00C00042815
:1048000004D0082804D00C2815D027E0404626E024
:1048100000F027F847BFC0F38816A8FB0601C0F3D5
:104820008818A6FB0801FCF7E1FD2168C1F30141EE
:10483000491C49000FE000F014F847BFC0F3881688
:10484000A8FB0601C0F38818A6FB0801FCF7CEFD03
:104850002168C1F30271B0FBF1F000E03046BDE821
:1048600050810023226820684102206802F03F0244
:1048700070472DE9F8430646BC4D3078C1074AD54C
:1048800000F078F904280DD000F074F9082802D15E
:104890006868410206D400F06DF90C280BD16868F5
:1048A000410208D52868810335D57068002840F09A
:1048B000B780012056E17068B0F5803F04D12868C8
:1048C00040F48030286011E0B0F5A02F286806D1B0
:1048D00040F480202860296841F4803105E020F40C
:1048E00080302860296821F480212960706868B1CF
:1048F000FEF7C4FE04462868810300F19180FEF7AC
:10490000BDFE001B6528F6D303202BE1FEF7B6FEA3
:1049100004462868810340F18380FEF7AFFE001B48
:104920006528F6D3F0E7FEF7A9FE001B022840F247
:10493000AA80E9E7F06870B101213960FEF79EFEB8
:1049400004462868810700F1CE80FEF797FE001B21
:104950000228F6D9D8E73860FEF790FE04462968A9
:10496000880760D5FEF78AFE001B0228F7D9CBE73F
:10497000FFF737FF0446686F810779D5FEF77EFEA3
:10498000001B0228F7D9BFE70528286F06D140F0A1
:1049900004002867286F40F0010005E0400840004F
:1049A0002867286F20F00400286741F28938B06832
:1049B00068B1FEF763FE8146286F810700F1A08091
:1049C000FEF75CFEA0EB09004045F5D39CE7FEF73F
:1049D00055FE8146286F810740F19280FEF74EFE1A
:1049E000A0EB09004045F5D38EE7FEF747FE001B1C
:1049F000022840F2988087E7FEF740FE001B02285D
:104A000040F2AB8080E700F0B9F8044628688101E5
:104A100040F1A780FEF732FE001B0228F6D973E7AB
:104A200030785B4F810721D5A86810F00C0F0FD0AC
:104A300000F0A0F8082802D16868410208D500F00B
:104A400099F80C287FF476AF686841023FF572AFA1
:104A50002868810703D5F06801287FF42AAF296808
:104A6000306921F0F80141EAC00129603178080776
:104A70000DD57069474900283FF47AAF01220A60DA
:104A8000FEF7FCFD0446686F81077FF54CAF307878
:104A900041073AD5286C0024C1000AD400940124AF
:104AA000296C41F080512964286C00F080500090FE
:104AB0000098DFF8BC80D8F80000C1051BD4D8F8F6
:104AC000000040F48070C8F80000FEF7D7FD814672
:104AD000D8F80000C1050ED4FEF7D0FDA0EB090008
:104AE0000228F5D910E72868316920F0F80040EA7B
:104AF000C1002860BAE7B06801287FF445AF49E7F4
:104B00001CB1286C20F080502864B06948B3A968B3
:104B100001F00C0108293FF4CCAE02287FF473AFFA
:104B200000F02CF80446286881013FF55EAFF26979
:104B3000306A716A0243B06A400842EA8112401E3C
:104B400042EA0042F06A316B42EA006242EA0172D4
:104B50006A60012000F013F80446286881017FF59F
:104B60004BAF0020BDE8F283000000000038024097
:104B700000700040A86800F00C0070470020386604
:104B8000FEF77CBD0024F400001BB700043802408F
:104B900000004742800E4742F8B500F027F8012197
:104BA00000F01EF83160FEF769FD07462868C10372
:104BB0000CD4FEF763FDC01BA042F7D30320F2BD67
:104BC000FEF75CFD801BA04205D3F7E70120706073
:104BD000FEF754FD064628688103F1D50020F2BD9A
:104BE000006800F08050009000987047002000900E
:104BF00040F2E9340448054E0168024D41F080510D
:104C000001607047047000404038024040000E428E
:104C10002DE9F04104000F4678D0494E306800F08D
:104C20000F00B84202D200F073F86FD12068454DF2
:104C3000810712D5400703D5A96841F4E051A96066
:104C40002078010703D5A86840F46040A860A968EF
:104C5000A06821F0F0010143A9602178C8074DD573
:104C60006068012802D129688A0305E0022818BF7C
:104C7000032803D129688A0103D447E029688A07F9
:104C800044D5A968890840EA8100A860FEF7F6FCCF
:104C90008046A868616800F00C00B0EB810F2DD051
:104CA000FEF7ECFCA0EB080041F289318842F0D31A
:104CB000032021E02078410705D5AA68E06822F4A6
:104CC000E0520243AA602178080706D5A968206946
:104CD00021F4604141EAC001A960FFF785FDAA689F
:104CE00019491A4BC2F30312895CC840186018486E
:104CF000006800F04DF80020BDE8F081306800F059
:104D00000F008742D6D200F003F8D3D00120F3E79A
:104D10003770316801F00F01B94270470B480D4AF6
:104D2000006813680C49C3F3822206E00748094A69
:104D3000006813680849C3F34232895CC840704771
:104D4000003C0240003802401C520008A400002031
:104D5000A0000020083802402453000800B500BF1E
:104D6000130096469446103928BFA0E80C50FAD894
:104D70005FEA417C28BF0CC048BF40F8042BC9073C
:104D800028BF20F8022B48BF00F8012B00BD00000F
:104D900038B50D4D0D4B2A7804464FF47A711868DA
:104DA000B1FBF2F2B0FBF2F0FEF748FC50B9102C68
:104DB00008D2002221464FF0FF30FEF717FCAC600E
:104DC000002032BD012032BD98000020A400002048
:104DD00070477047704770477047000038B504212E
:104DE0000D480E4C0E4DFEF7C7FB0E4908780F28F4
:104DF00008D10A2319222846FEF7E9FF0A230222D6
:104E0000A11C02E00A2301222146284601B0BDE888
:104E10003040FEF7DCBF00000008024070010020B7
:104E200054000020BC03002070470000C0F3C751AD
:104E300081B1FF2906D0C110400721F0E04101F106
:104E40006051704741020CBF40F4E0016FF0004137
:104E50000020704700F0004100020AD0B0FA80FC48
:104E600000FA0CF001F16051A1EB0C5101EBD021E3
:104E70004005704783B500F5A07082B000F029F8B6
:104E8000A220FFE78DF800008A600A7500F01AF88A
:104E9000ADF8023001F118039DF80D008DF8050002
:104EA0006A469DF80E008DF806009DF80F008DF8FB
:104EB0000700DFF88402FEF7E9FE08B1FEF774FA96
:104EC00005B000BD08229DF80C008DF804000A61B1
:104ED000704700220023CDE90023DFF860128DF82F
:104EE00001300860CA60704700F5A07086B582B0D6
:104EF000FFF7EFFFA4208DF800008A600A750822F2
:104F00009DF80C009DF808308DF804000A618DF8BA
:104F1000023001F118039DF80D009DF80A208DF86C
:104F200005008DF80320BBE701F118036A46DFF89E
:104F30000802FEF7ABBEE0B500F017F800F5A07070
:104F4000CA608A60086008220020812308750A610F
:104F50008DF800308DF80100ADF802000190FFF7E8
:104F6000E3FF08B1FEF720FA07BD0022CDE90022D9
:104F70007249704700220023CDE900238DF802001A
:104F8000704733B583B000F097F8A22169E008219B
:104F90008DF801008DF803103E248DF800408DF847
:104FA0000250042200216846A8E038B50EB485B04E
:104FB000054668461421FEF7FBFAA4200C21FFF7F2
:104FC000E7FF8DF804000C229DF818009DF83010C2
:104FD0008DF805008DF80D1005219DF819008DF84C
:104FE00006009DF81A008DF807009DF81B008DF84B
:104FF00008009DF81C008DF809009DF81D008DF833
:105000000A009DF81E008DF80B009DF81F008DF81A
:105010000C009DF831008DF80E009DF832008DF8DF
:105020000F009DF833008DF8100000F03BF88DF86C
:1050300011000A23122200F05DF809B030BD0420EF
:105040008DF801108DF8030070478DF809000A23D0
:105050000A2269463A48FEF7BABE04220021684691
:105060004CE0FFF7ECFF3E258DF80050FFF7F5FF11
:105070008DF8040004229DF8100000F015F800F0EF
:1050800006F800F00FF8FFF7E0FF05B030BD9DF81F
:1050900012008DF807009DF813008DF80800704786
:1050A0008DF80C00684629E08DF8050005219DF873
:1050B00011008DF806007047694600220023002485
:1050C00081E81C008DF8020070473EB5FFF752FFE3
:1050D0003E2404208DF8030080258DF800408DF8D3
:1050E0000150FFF7BAFF8DF804000A23052200F0F3
:1050F00001F837BD69461248FEF769BE70B5034630
:1051000000200C4602E05D5D4019641CE5B25618B3
:10511000B542F8DBC0B270BD80B54FF4004109481C
:10512000FEF720FA012808490CBF00200120087072
:10513000087802BD00000000BC010020C00500206E
:105140007C02002000040240F80500207047FEE7C2
:10515000FEE7FEE7FEE770477047704700F02CB8A7
:105160001048FDF797BD1048FEF7DABE10B50F489E
:10517000FCF78DFE0E4801684268491C521C40F243
:10518000F51483685B1CA14228BF00210160836085
:1051900041F289318A4228BF0022426010BD054891
:1051A000FDF778BDD4040020BC0200207C03002061
:1051B000DC050020740400200248416802788A1847
:1051C00042607047980000200D0A2A2A2A2A2A20C5
:1051D0005468697320697320612064656D6F206372
:1051E0006F646520706F776572656420627920470F
:1051F00059454D53202A2A2A2A2A2A0D0A0D0A0027
:105200000448054A016841F4700101604FF00060F4
:105210001060704788ED00E008ED00E0000000003D
:1052200000000000010203040607080910B5074941
:1052300079441831064C7C44163404E00A68081D91
:10524000114488470146A142F8D110BD2C0000004E
:10525000480000004EF68851CEF20001086840F484
:1052600070000860BFF34F8FBFF36F8F4FF0007077
:10527000E1EE100A704700009BBFFFFF88040000AA
:10528000740100200000000083BEFFFFEE0100005B
:10529000BE0000000000002000F00DF8002801D042
:1052A000FFF7C4FFAFF300800020AFF30080FDF7ED
:1052B000F1FD00F002F80120704700F001B8000095
:1052C00007463846FCF790FDFBE7000001B54FF6B6
:1052D000FF73012269460248FEF779FD009802BD7E
:1052E0005400002038B504460D46284600F006F864
:1052F000A84218BF0024204632BD00000149FFF734
:10530000E5BF00BF28010020014880470148004751
:105310000152000819530008AFF30080FFF79AFF0D
:10532000FFF7BAFF000000000102030400002E0096
:105330004300FFF7FEBFFFF7FEBFFFF7FEBFFFF71B
:10534000FEBFFFF7FEBFFFF7FEBFFFF7FEBFFFF791
:10535000FEBFFFF7FEBFFFF7FEBFFFF7FEBFFFF781
:10536000FEBFFFF7FEBFFFF7FEBFFFF7FEBFFFF771
:10537000FEBFFFF7FEBFFFF7FEBFFFF7FEBFFFF761
:10538000FEBFFFF7FEBFFFF7FEBFFFF7FEBFFFF751
:10539000FEBFFFF7FEBFFFF7FEBFFFF7FEBFFFF741
:1053A000FEBFFFF7FEBFFFF7FEBFFFF7FEBFFFF731
:1053B000FEBFFFF7FEBFFFF7FEBFFFF7FEBFFFF721
:1053C000FEBFFFF7FEBFFFF7FEBFFFF7FEBFFFF711
:1053D000FEBFFFF7FEBFFFF7FEBFFFF7FEBFFFF701
:1053E000FEBFFFF7FEBFFFF7FEBFFFF7FEBFFFF7F1
:1053F000FEBFFFF7FEBFFFF7FEBFFFF7FEBFFFF7E1
:10540000FEBFFFF7FEBFFFF7FEBFFFF7FEBFFFF7D0
:10541000FEBFFFF7FEBFFFF7FEBFFFF7FEBFFFF7C0
:10542000FEBFFFF7FEBFFFF7FEBFFFF7FEBFFFF7B0
:10543000FEBFFFF7FEBFFFF7FEBFFFF7FEBFFFF7A0
:10544000FEBFFFF7FEBFFFF7FEBFFFF7FEBFFFF790
:10545000FEBFFFF7FEBFFFF7FEBFFFF7FEBFFFF780
:10546000FEBFFFF7FEBFFFF7FEBFFFF7FEBFFFF770
:10547000FEBFFFF7FEBFFFF7FEBFF282000112750D
:1054800095520199221008F0050724F4002C5300CE
:10549000080452FF01F2002E1410010000300C210C
:1054A0004CF00217A8000020EC2002D51200082CB6
:1054B00043C3123C210110070204010134050020FE
:1054C0008404523404211B6108F004116C01002093
:0954D0005801640002CC00AABBE3
:040000050800531983
:00000001FF
